:100000000C94C2000C94EA000C94EA000C94EA00F0
:100010000C94EA000C94EA000C94BB070C94EA00E0
:100020000C94EA000C94EA000C94EA000C94EA00A8
:100030000C94EA000C94EA000C94EA000C94EA0098
:100040000C94EA000C94EA000C94EA000C94EA0088
:100050000C944C070C94EA000C94EA000C94EA000F
:100060000C9471070C94EA000C94EA000C94EA00DA
:100070000C94EA000C9402070C94EA000C94EA0039
:100080000C94EA000C94EA000C9496070C94270751
:100090000C949E060C9406080C94E0070C94EA005D
:1000A00050415241444F00434F525249454E444FF4
:1000B00000524556004657440020207C2020002056
:1000C000207C20204469723A20002064656700206B
:1000D000207C2020416E673A20002052504D0020A5
:1000E000207C20205265616C3A20002052504D0047
:1000F0005461726765743A2000436F6D616E646F7E
:10010000733A20272B2720272D27202772272027E7
:10011000732720277A273D7A65726F202764273D51
:100120006465627567003D3D3D20204E454D41317F
:1001300037202B20544D4332323038202B20454E6F
:10014000434F44455220203D3D3D00202070696EC4
:10015000423D00202070696E413D002020495352ED
:100160005F423D0020204953525F413D00636F755F
:100170006E743D00456E636F646572202D3E2030C5
:100180000000530B11241FBECFEFCDBFDFE3DEBF56
:1001900018E2A0E0B8E2EDEFFCE102C005900D929C
:1001A000AA30B107D9F729E2AAE0B8E201C01D924E
:1001B000AC39B207E1F710E0C2ECD0E004C02197FF
:1001C000FE010E94E20BC13CD107C9F70E944F0813
:1001D0000C94330E0C94000090E0FC01EE52F34AB4
:1001E000E081EF3F39F18854934ADC012C91822F52
:1001F000880F880F880F8E0F8033E0F490E0880F0F
:10020000991FDC01AF55B74D6D937C938F5B974D74
:10021000DC011D921C92B0E22B9FC00111249C5F57
:100220004096E80FF92FF11D8081887F80838081BF
:10023000816080830895CF93DF9390E0FC01E256C4
:10024000F34A20812F3F69F0FC01E854F34AE08132
:1002500030E2E39FF0011124FC5F6130710521F46D
:100260002183DF91CF9108958E52934AEC01A881AA
:10027000AF3F69F0CF014096A80FB92FB11D9FB7CE
:10028000F89422838C9188608C939FBFEACFB0E072
:10029000A0E0F5CF282F30E0F901EC57F34AE081D8
:1002A000EE2309F1E13021F0F0F0E63098F0089506
:1002B0004091010A2E52334AF90120812C5F81E0DE
:1002C00090E001C0880F2A95EAF7809584238093F7
:1002D000010A089580E1E89FF0011124E05AF54FEA
:1002E00081818F7E81830895FF920F931F93CF9317
:1002F000DF93082F10E0F801E256F34AF0809FEFF9
:10030000F916A1F0EB018B3210F40E944A01F801BA
:10031000E854F34AE08180E2E89FF0011124FC5F99
:1003200080818F2159F0CD2B39F4F682DF91CF9166
:100330001F910F91FF900895F582F8CFD801AE522A
:10034000B34A8C91309771F08F3F61F07096E80F4F
:10035000F11D9FB7F8948081CD2B39F4877F80837E
:100360009FBFE4CFF0E0E0E0F4CF8860F8CF0F93D8
:100370001F93CF93082F10E0F801E256F34AC08193
:10038000CF3FA9F00E944A01F801E854F34AE08106
:1003900080E2E89FF0011124FC5F8085C82381E0A2
:1003A00090E009F480E0CF911F910F91089580E0D3
:1003B00090E0F9CFCF93DF938FB7F89420913D2849
:1003C00030913E2840913F2850914028E091BA0A50
:1003D0009091B60A90FF06C02F5F3F4F4F4F5F4F7F
:1003E000E091BA0A8FBFA0913B28B0913C28C09100
:1003F0003928D0913A280E94CF0BEC9F9001ED9FB5
:10040000300D1124620F731F811D911DDF91CF915B
:100410000895AF92BF92CF92DF92EF92FF920F9327
:100420001F93CF93DF936C017B018B01040F151F8A
:10043000EB015E01AE18BF08C017D10759F06991F2
:10044000D601ED91FC910190F081E02DC601099556
:10045000892B79F7C501DF91CF911F910F91FF9003
:10046000EF90DF90CF90BF90AF900895EF92FF9202
:100470000F931F93CF93DF93C82FD0E0A09695E002
:10048000CC0FDD1F9A95E1F7E984F82EFF0CFF0CE5
:10049000FF0C01E010E08E2D8023A9F02F2D210FFD
:1004A00030E0220F331FF901EF55F74D8081918124
:1004B000892B49F00190F081E02D2F5B374DD90158
:1004C0008D919C9109951F5F000F183021F7E986E7
:1004D000DF91CF911F910F91FF90EF900895FC0154
:1004E00054894589252F30E0842F90E0821B930B9F
:1004F000541710F0CF96089501970895FC01928942
:100500008389981761F0A389AE0FBF2FB11D59964B
:100510008C9193899F5F9F73938B90E008958FEFE9
:100520009FEF0895FC0192898389981731F08389A0
:10053000E80FF11D818D90E008958FEF9FEF0895F2
:10054000FC0192892389892F90E0805C9F4F821B58
:1005500091098F7399270895CF93DF93EC01E88178
:10056000F9810680F781E02D0995EC85FD8586816E
:100570008F738683EC85FD8585818F7585838B8957
:100580008A8B198ADF91CF910895CF92DF92EF92F3
:10059000FF920F931F93CF93DF93EC016A017B01CE
:1005A000022F8989882339F0E881F9810288F3894B
:1005B000E02DCE01099598898091E205892B8093E1
:1005C000E2051FB7F89460E070E281EA97E0A701C6
:1005D00096010E948E0B69017A018FEFC81AD80A22
:1005E000E80AF80AF694E794D794C794EC85FD8559
:1005F00086818D7F8683EC85FD8586818683198A39
:10060000A09123110A2E000CBB0BA70196010E949A
:10061000DA0B20E034E040E050E00E94B00BEC85C3
:10062000FD85C20ED31EE41EF51EC086D186EC8564
:10063000FD850783EC85FD858681806C8683EC854E
:10064000FD858581806885838E858B3220F462E00C
:1006500070E00E941B018F858B3220F461E070E016
:100660000E9474018F858B3220F461E070E00E945B
:100670001B011FBFDF91CF911F910F91FF90EF9052
:10068000DF90CF900895CF93DF93FC019489858903
:10069000C485D585981306C08D818F7D8D83DF91AC
:1006A000CF910895A589AE0FBF2FB11DA75ABF4F97
:1006B0002C91858990E001968F739927858B80E432
:1006C0008C83A485B58512962C939489858998137B
:1006D000E6CFA485B58515968C9115978F7D1596D7
:1006E0008C9387898823D9F2808D80931301178A90
:1006F000D6CFDC011C96ED91FC910FB607FE03C02E
:10070000258125FD04C0248125FD0C944303089513
:10071000EF92FF920F931F93CF93DF93EC0181E051
:10072000898B9C898D8998131CC0AC85BD851496D6
:100730008C91149785FF15C012966C93AC85BD857E
:1007400080E414968C93EC85FD8585818F7D85836F
:1007500081E090E0DF91CF911F910F91FF90EF909A
:1007600008958091110180FF08C080911301888F46
:100770008E898093130181E08F8BF62E0C8910E017
:100780000F5F1F4F0F731127E02E8D898E1104C04C
:10079000CE010E947903F9CFEC89EC0FFD2FF11DFA
:1007A000E75AFF4FF0820C8BEC85FD8585818062D6
:1007B000CECF0F931F93CF93DF938C01D0E0C0E097
:1007C000F801EC0FFD1F6491662341F081E099E28E
:1007D0000E948803892B11F02196F2CFCE01DF9180
:1007E000CF911F910F910895CF93DF93FC01218941
:1007F0002223C9F0EC018091110180FF08C0809193
:100800001301808F86898093130181E0878BEC85AB
:10081000FD85858185FD03C0848186FD04C0CE01F0
:100820000E947903F4CFDF91CF91089581E008957C
:10083000CF92DF92EF92FF920F931F93CF93DF93AC
:100840000E94DA0100910E2810910F2820911028A3
:10085000309111286B017C01C01AD10AE20AF30A17
:10086000970186010233110521053105C0F160931E
:100870000E2870930F288093102890931128809150
:10088000222890912328A0912428B0912528019610
:10089000A11DB11D8093222890932328A093242882
:1008A000B093252887E00E94B701EC0188E00E9400
:1008B000B7018C179D07E1F480912A2890912B288D
:1008C000A0912C28B0912D280197A109B1098093FE
:1008D0002A2890932B28A0932C28B0932D28DF91C1
:1008E000CF911F910F91FF90EF90DF90CF900895DF
:1008F00080912A2890912B28A0912C28B0912D2806
:100900000196A11DB11DE3CFCF92DF92EF92FF922E
:100910000F931F93CF93DF930E94DA0100910A286F
:1009200010910B2820910C2830910D286B017C012F
:10093000C01AD10AE20AF30A9701860102331105AF
:1009400021053105C0F160930A2870930B2880932C
:100950000C2890930D288091262890912728A0910B
:100960002828B09129280196A11DB11D8093262821
:1009700090932728A0932828B093292887E00E94E5
:10098000B701EC0188E00E94B7018C179D07E1F4E4
:1009900080912A2890912B28A0912C28B0912D2865
:1009A0000196A11DB11D80932A2890932B28A09316
:1009B0002C28B0932D28DF91CF911F910F91FF909C
:1009C000EF90DF90CF90089580912A2890912B2866
:1009D000A0912C28B0912D280197A109B109E3CF4E
:1009E000DC01ED91FC910088F189E02D23E030E0FD
:1009F0000994FC0101900020E9F73197AF01481BF1
:100A0000590BBC0181E099E20C940902CF93DF936A
:100A10000E94D903EC018CEE9CE50E94F9048C0F36
:100A20009D1FDF91CF9108958F929F92AF92BF92B9
:100A30000F931F93CF93DF93CDB7DEB7A197CDBFB1
:100A4000DEBF19A2423008F44AE08E010F5D1F4F4D
:100A5000842E912CB12CA12CA50194010E948E0B07
:100A6000E62FB901CA01EA30DCF4E05DD801EE936B
:100A70008D01232B242B252B79F790E080E0109714
:100A800019F0CD010E94F904A196CDBFDEBFDF9120
:100A9000CF911F910F91BF90AF909F908F9008952D
:100AA000E95CE4CF8F929F92AF92BF92CF92DF9298
:100AB000EF92FF92CF93DF936B017C01AC019B011E
:100AC0000E942E0E882371F08FEE9CE5DF91CF916E
:100AD000FF90EF90DF90CF90BF90AF909F908F905E
:100AE0000C94F90446015701E894B7F82FEF3FEF53
:100AF0004FE75FE7C501B4010E942E0E81110DC0C2
:100B00002FEF3FEF4FE75FE7C501B4010E94640C90
:100B100018161CF483EF9CE5D9CF2FEF3FEF4FE77A
:100B20005FE4C701B6010E94BC0D18161CF487EFE4
:100B30009CE5CCCF2FEF3FEF4FE75FECC701B6014D
:100B40000E94640C87FDF3CF20E030E0A901C701CB
:100B5000B6010E94640CD0E0C0E087FF0AC06DE2DD
:100B600081E099E20E948803EC01F7FAF094F7F82B
:100B7000F0942DEC3CEC4CE45DE3C701B6010E941F
:100B8000F80B4B015C010E94DB0C6B017C010E94A5
:100B90000A0D9B01AC01C501B4010E94F70B4B018A
:100BA0005C014AE0C701B6010E941405C80FD91FB5
:100BB0008BEF9CE50E94F904C80FD91F20E030E0BC
:100BC00040E251E4C501B4010E94C10D0E94DB0C5A
:100BD00090E080E04AE00E9414058C0F9D1FDF9199
:100BE000CF91FF90EF90DF90CF90BF90AF909F900C
:100BF0008F900895CF92DF92EF92FF92F8946091D8
:100C00002A2870912B2880912C2890912D28789457
:100C100020E639E040E050E00E94B00B6B017C011F
:100C2000F7FE06C080E6C80E89E0D81EE11CF11C64
:100C300080EF90E00E94D903609106287091072808
:100C400080910828909109280E9452058BEE90E02F
:100C50000E94D9038FED90E00E94D9036091122881
:100C60007091132880911428909115280E945205A4
:100C70008AED90E00E94D9038FEC90E00E94D903A6
:100C8000C701B6010E940C0D2AE939E949E15EE38A
:100C90000E94C10D0E9452058AEC90E00E94D90387
:100CA0008FEB90E00E94D90380910528811114C038
:100CB00081EB90E00E94D90389EB90E00E94D90378
:100CC0008091042881110BC080EA90E0FF90EF90A2
:100CD000DF90CF900C94060585EB90E0EBCF87EA90
:100CE00090E0F4CFCF92DF92EF92FF92CF93DF9319
:100CF00097FF1BC06B017C016DE281E099E20E94CD
:100D00008803EC0166277727CB016C197D098E09D2
:100D10009F094AE00E9414058C0F9D1FDF91CF911F
:100D2000FF90EF90DF90CF9008954AE0DF91CF9150
:100D3000FF90EF90DF90CF900C9414051F920F92CC
:100D40000FB60F9211242F933F934F935F936F939E
:100D50007F938F939F93AF93BF934091352850918A
:100D600036286091372870913828809133289091E7
:100D700034282091312830913228420F531F611DB1
:100D8000711D20912F2830913028820F931F883EAB
:100D900023E0920730F0885E93404F5F5F4F6F4FC4
:100DA0007F4F809333289093342840933528509375
:100DB0003628609337287093382880913D28909189
:100DC0003E28A0913F28B09140280196A11DB11D59
:100DD00080933D2890933E28A0933F28B0934028CD
:100DE00081E08093B60ABF91AF919F918F917F91DF
:100DF0006F915F914F913F912F910F900FBE0F9088
:100E00001F9018951F920F920FB60F9211242F93D7
:100E10003F934F935F936F937F938F939F93AF9382
:100E2000BF93EF93FF9385E00E943602FF91EF910D
:100E3000BF91AF919F918F917F916F915F914F91F2
:100E40003F912F910F900FBE0F901F9018951F92FA
:100E50000F920FB60F9211242F933F934F935F93EE
:100E60006F937F938F939F93AF93BF93EF93FF9372
:100E700084E00E943602FF91EF91BF91AF919F9164
:100E80008F917F916F915F914F913F912F910F9033
:100E90000FBE0F901F9018951F920F920FB60F92D2
:100EA00011242F933F934F935F936F937F938F936F
:100EB0009F93AF93BF93EF93FF9383E00E9436021B
:100EC000FF91EF91BF91AF919F918F917F916F9122
:100ED0005F914F913F912F910F900FBE0F901F90F8
:100EE00018951F920F920FB60F9211242F933F93D4
:100EF0004F935F936F937F938F939F93AF93BF9322
:100F0000EF93FF9382E00E943602FF91EF91BF9131
:100F1000AF919F918F917F916F915F914F913F9191
:100F20002F910F900FBE0F901F9018951F920F9248
:100F30000FB60F9211242F933F934F935F936F93AC
:100F40007F938F939F93AF93BF93EF93FF9381E032
:100F50000E943602FF91EF91BF91AF919F918F91C7
:100F60007F916F915F914F913F912F910F900FBEA5
:100F70000F901F9018951F920F920FB60F92112489
:100F80002F933F934F935F936F937F938F939F9391
:100F9000AF93BF93EF93FF9380E00E943602FF91DF
:100FA000EF91BF91AF919F918F917F916F915F91E1
:100FB0004F913F912F910F900FBE0F901F9018955A
:100FC0001F920F920FB60F9211242F933F934F93BE
:100FD0005F936F937F938F939F93AF93BF93EF93A1
:100FE000FF9381E099E20E944303FF91EF91BF914B
:100FF000AF919F918F917F916F915F914F913F91B1
:101000002F910F900FBE0F901F9018951F920F9267
:101010000FB60F9211242F933F934F935F936F93CB
:101020007F938F939F93AF93BF93EF93FF93E09141
:101030000D29F0910E29818181FD2FC06081809161
:1010400013298F5F8F7390911429891741F0E091D4
:101050001329F0E0EF5FF64D618F809313298091A3
:101060009A2990919B29009739F0DC01ED91FC9130
:101070000190F081E02D0995FF91EF91BF91AF9123
:101080009F918F917F916F915F914F913F912F91A0
:101090000F900FBE0F901F9018958081EDCFCF93CA
:1010A000DF93CDB7DEB72897CDBFDEBF88ED90E0E8
:1010B00084BF9093610080E094E2A4EFB0E080935D
:1010C000002890930128A0930228B09303288091D0
:1010D00002068660809302068091000681608093FC
:1010E0000006809102068F7C809302068091A0000A
:1010F0008F788093A0008091020680618093020621
:101100001092E20581E08093E40583E08093010A78
:101110008FEF90E08093260A9093270A80E890E072
:101120008093380A9093390A80933A0A90933B0A45
:1011300080933C0A90933D0A8BE08093000A809153
:10114000E50581608093E5058091E50582608093E7
:10115000E505E0E8FAE037E02FEF90E885E031833D
:101160002487958780837096E03C4AE0F407B9F7BE
:1011700080E094E080933B2890933C2880913B282A
:1011800090913C282FEF30E0B9010E947A0B6093D8
:10119000392870933A2880913B2890913C28E8EEBA
:1011A000F3E0BF010E947A0B6093312870933228DC
:1011B00080913B2890913C28BF010E947A0B80933C
:1011C0002F28909330282093BC0A3093BD0A809139
:1011D000B50A81608093B50A84E08093B00A80915B
:1011E000B00A81608093B00A789440E052EC61E0EC
:1011F00070E081E099E20E94F00461E070E084E038
:101200000E941B0161E070E085E00E941B0161E02B
:1012100070E086E00E941B0161E070E086E00E94C1
:10122000740170E060E084E00E9474016091052820
:1012300070E085E00E94740183E090E00197F1F78F
:101240000E94DA016B017C0150E4C50E5DE0D51E01
:1012500053E0E51EF11C80E4C8168DE0D80683E05B
:10126000E806F10438F40E94DA01C616D706E8064B
:10127000F906C8F30E94DA016C157D058E059F05FD
:10128000C8F370E060E086E00E94740162E070E004
:1012900087E00E941B0162E070E088E00E941B0171
:1012A00064E874E087E00E94EC0068E174E088E0A4
:1012B0000E94EC000E94DA0160931E2870931F28A0
:1012C00080932028909321282FB7F8948091352877
:1012D00090913628A0913728B09138282FBF80935D
:1012E0001A2890931B28A0931C28B0931D2886E2EF
:1012F00091E00E94060589EF90E00E9406050E9499
:10130000FA0511E020E0222E20E0322E0E94DA01C0
:1013100069837A838B839C838FB7F89440903528B8
:101320005090362860903728709038288FBF81E021
:1013300099E20E94A002892B79F081E099E20E9453
:101340007E02843609F452C10CF0AEC08B3209F42F
:10135000C2C08D3209F4E8C080910428882309F4C2
:1013600044C020E030E048EC54E4609106287091DD
:10137000072880910828909109280E94C10D9B019F
:10138000AC0160EC71EE84EE9BE40E94690C0E945B
:10139000DB0C6B017C0180901E2890901F28A09090
:1013A0002028B090212889819A81AB81BC8188193D
:1013B0009909AA09BB098C159D05AE05BF05A8F0C2
:1013C00060912E28612760932E2870E084E00E94AF
:1013D0007401C80CD91CEA1CFB1CC0921E28D092B8
:1013E0001F28E0922028F092212880911A289091BD
:1013F0001B28A0911C28B0911D28A3019201281B35
:10140000390B4A0B5B0BDA01C901883E9340A105F9
:10141000B10508F442C040921A2850921B286092ED
:101420001C2870921D28F894C0902A28D0902B2850
:10143000E0902C28F0902D28789440911628509117
:101440001728609118287091192846015701841AAD
:10145000950AA60AB70AC501B401C0921628D0920F
:101460001728E0921828F09219280E940C0D20E00D
:1014700030E046E155E40E94690C20E030E040E7AE
:1014800052E40E94C10D6093122870931328809338
:101490001428909315280E94FA052114310409F4A8
:1014A00035CF0E94000032CF833709F45CC08A3701
:1014B00009F46DC0823709F04FCF6091052861278C
:1014C0006093052870E085E00E94740183E090E05D
:1014D0000197F1F726C020E030E040EA50E4609147
:1014E00006287091072880910828909109280E9469
:1014F000F80B6B017C0120E030E040EF52E40E94E9
:10150000BC0D181634F4C12CD12C90EFE92E92E4C6
:10151000F92EC0920628D0920728E0920828F0926F
:1015200009280E94FA0518CF20E030E040EA50E494
:1015300060910628709107288091082890910928C9
:101540000E94F70B6B017C0120E030E040EA50E4A0
:101550000E94640C87FFDDCFC12CD12C80EAE82EDD
:1015600080E4F82ED6CF60910428F62EF126F09272
:10157000042870E086E00E947401F110D2CF70E080
:1015800060E084E00E94740110922E28CACFF89483
:1015900010922A2810922B2810922C2810922D2875
:1015A0001092262810922728109228281092292875
:1015B0001092222810922328109224281092252875
:1015C00078941092162810921728109218281092CA
:1015D0001928109212281092132810921428109291
:1015E000152884E791E00E940605B6CEF894809015
:1015F0002A2890902B28A0902C28B0902D288D82FE
:101600009E82AF82B8868090262890902728A0904E
:101610002828B0902928C0902228D0902328E09034
:101620002428F090252878948DE691E00E94D90333
:101630006D817E818F8198850E94720684E691E09B
:101640000E94D9034AE0C501B4010E9414058BE54C
:1016500091E00E94D9034AE0C701B6010E94140537
:101660008CEE9CE50E94F90483E591E00E94D90389
:1016700087E00E94B701BC01990F880B990B0E946B
:1016800072068BE491E00E94D90388E00E94B701C2
:10169000BC01990F880B990B0E9472068CEE9CE599
:1016A0000E94F90459CEE1E0F9E21282138288EE39
:1016B00093E0A0E0B0E084839583A683B7838EE6B1
:1016C0009CE58083918380E698E08487958788E114
:1016D000868789E1878780E4808B128A138A148A3F
:1016E000158A86E2868B178A108E10929A2910929C
:1016F0009B290895AA1BBB1B51E107C0AA1FBB1F52
:10170000A617B70710F0A61BB70B881F991F5A958D
:10171000A9F780959095BC01CD010895A1E21A2EFC
:10172000AA1BBB1BFD010DC0AA1FBB1FEE1FFF1F85
:10173000A217B307E407F50720F0A21BB30BE40BD5
:10174000F50B661F771F881F991F1A9469F760951C
:101750007095809590959B01AC01BD01CF010895D6
:10176000052E97FB1EF400940E94C70B57FD07D06F
:101770000E948E0B07FC03D04EF40C94C70B5095BF
:101780004095309521953F4F4F4F5F4F089590956D
:101790008095709561957F4F8F4F9F4F08950E9460
:1017A000E80BA59F900DB49F900DA49F800D911DF7
:1017B00011240895B7FF0C94CF0B0E94CF0B821B0E
:1017C000930B0895EE0FFF1F0590F491E02D0994FF
:1017D000A29FB001B39FC001A39F700D811D112472
:1017E000911DB29F700D811D1124911D08955058B7
:1017F000BB27AA270E940F0C0C94820D0E94740D27
:1018000038F00E947B0D20F039F49F3F19F426F444
:101810000C94710D0EF4E095E7FB0C946B0DE92F21
:101820000E94930D58F3BA17620773078407950750
:1018300020F079F4A6F50C94B50D0EF4E0950B2E7E
:10184000BA2FA02D0B01B90190010C01CA01A00112
:101850001124FF27591B99F0593F50F4503E68F16D
:101860001A16F040A22F232F342F4427585FF3CFAE
:10187000469537952795A795F0405395C9F77EF47F
:101880001F16BA0B620B730B840BBAF09150A1F0C8
:10189000FF0FBB1F661F771F881FC2F70EC0BA0F4E
:1018A000621F731F841F48F4879577956795B795D6
:1018B000F7959E3F08F0B0CF9395880F08F09927D1
:1018C000EE0F9795879508950E94470D08F481E0E3
:1018D00008950E947D0C0C94820D0E947B0D58F09F
:1018E0000E94740D40F029F45F3F29F00C946B0DB9
:1018F00051110C94B60D0C94710D0E94930D68F368
:101900009923B1F3552391F3951B550BBB27AA27B8
:1019100062177307840738F09F5F5F4F220F331FF2
:10192000441FAA1FA9F335D00E2E3AF0E0E832D0BA
:1019300091505040E695001CCAF72BD0FE2F29D0BD
:10194000660F771F881FBB1F261737074807AB078F
:10195000B0E809F0BB0B802DBF01FF2793585F4F04
:101960003AF09E3F510578F00C946B0D0C94B60D37
:101970005F3FE4F3983ED4F3869577956795B795E6
:10198000F7959F5FC9F7880F911D9695879597F9F1
:101990000895E1E0660F771F881FBB1F621773076A
:1019A0008407BA0720F0621B730B840BBA0BEE1F7F
:1019B00088F7E09508950E949B0D88F09F5798F056
:1019C000B92F9927B751B0F0E1F0660F771F881F44
:1019D000991F1AF0BA95C9F714C0B13091F00E945E
:1019E000B50DB1E008950C94B50D672F782F8827B9
:1019F000B85F39F0B93FCCF3869577956795B39585
:101A0000D9F73EF490958095709561957F4F8F4FF3
:101A10009F4F0895E89409C097FB3EF490958095F8
:101A2000709561957F4F8F4F9F4F9923A9F0F92FA4
:101A300096E9BB279395F695879577956795B79522
:101A4000F111F8CFFAF4BB0F11F460FF1BC06F5F08
:101A50007F4F8F4F9F4F16C0882311F096E911C01A
:101A6000772321F09EE8872F762F05C0662371F03B
:101A700096E8862F70E060E02AF09A95660F771F4F
:101A8000881FDAF7880F9695879597F90895990F2B
:101A90000008550FAA0BE0E8FEEF16161706E80738
:101AA000F907C0F012161306E407F50798F0621B59
:101AB000730B840B950B39F40A2661F0232B242B2E
:101AC000252B21F408950A2609F4A140A6958FEF4D
:101AD000811D811D089597F99F6780E870E060E09F
:101AE00008959FEF80EC089500240A9416161706B7
:101AF00018060906089500240A94121613061406FF
:101B000005060895092E0394000C11F4882352F061
:101B1000BB0F40F4BF2B11F460FF04C06F5F7F4F19
:101B20008F4F9F4F089557FD9058440F551F59F000
:101B30005F3F71F04795880F97FB991F61F09F3FBA
:101B400079F087950895121613061406551FF2CFE3
:101B50004695F1DF08C0161617061806991FF1CF33
:101B600086957105610508940895E894BB2766275A
:101B70007727CB0197F908950E94470D08F48FEF5E
:101B800008950E94D40D0C94820D0E94740D38F0BB
:101B90000E947B0D20F0952311F00C946B0D0C949A
:101BA000710D11240C94B60D0E94930D70F3959F46
:101BB000C1F3950F50E0551F629FF001729FBB2744
:101BC000F00DB11D639FAA27F00DB11DAA1F649FE0
:101BD0006627B00DA11D661F829F2227B00DA11D93
:101BE000621F739FB00DA11D621F839FA00D611D19
:101BF000221F749F3327A00D611D231F849F600D3A
:101C0000211D822F762F6A2F11249F5750409AF062
:101C1000F1F088234AF0EE0FFF1FBB1F661F771FEE
:101C2000881F91505040A9F79E3F510580F00C94B9
:101C30006B0D0C94B60D5F3FE4F3983ED4F386959C
:101C400077956795B795F795E7959F5FC1F7FE2B59
:101C5000880F911D9695879597F908950E94470DD5
:0A1C6000880B990B0895F894FFCF4C
:101C6A0000000000880309026F02F403A0027E024A
:101C7A009202F004C502AC0216040000000300013F
:101C8A000200000101000000000000000000000046
:101C9A000000000020100120400410020801020187
:101CAA000204080402010408102004082010020299
:101CBA0000050201050004010104040403030303EF
:101CCA0005050303000001010504000506020401DD
:101CDA0003000100010203020100020304050203DA
:101CEA0005040D0A006E616E00696E66006F766605
:031CFA00002E00B9
:0A1CFD000024F40001010000F04192
:00000001FF
